{
  "_format": "hh-sol-artifact-1",
  "contractName": "SwapRouter02",
  "sourceName": "contracts/SwapRouter02.sol",
  "abi": [
    {
      "inputs": [
        {
          "internalType": "address",
          "name": "_factoryV2",
          "type": "address"
        },
        {
          "internalType": "address",
          "name": "factoryV3",
          "type": "address"
        },
        {
          "internalType": "address",
          "name": "_positionManager",
          "type": "address"
        },
        {
          "internalType": "address",
          "name": "_WETH9",
          "type": "address"
        }
      ],
      "stateMutability": "nonpayable",
      "type": "constructor"
    },
    {
      "inputs": [],
      "name": "WETH9",
      "outputs": [
        {
          "internalType": "address",
          "name": "",
          "type": "address"
        }
      ],
      "stateMutability": "view",
      "type": "function"
    },
    {
      "inputs": [
        {
          "internalType": "address",
          "name": "token",
          "type": "address"
        }
      ],
      "name": "approveMax",
      "outputs": [],
      "stateMutability": "payable",
      "type": "function"
    },
    {
      "inputs": [
        {
          "internalType": "address",
          "name": "token",
          "type": "address"
        }
      ],
      "name": "approveMaxMinusOne",
      "outputs": [],
      "stateMutability": "payable",
      "type": "function"
    },
    {
      "inputs": [
        {
          "internalType": "address",
          "name": "token",
          "type": "address"
        }
      ],
      "name": "approveZeroThenMax",
      "outputs": [],
      "stateMutability": "payable",
      "type": "function"
    },
    {
      "inputs": [
        {
          "internalType": "address",
          "name": "token",
          "type": "address"
        }
      ],
      "name": "approveZeroThenMaxMinusOne",
      "outputs": [],
      "stateMutability": "payable",
      "type": "function"
    },
    {
      "inputs": [
        {
          "internalType": "bytes",
          "name": "data",
          "type": "bytes"
        }
      ],
      "name": "callPositionManager",
      "outputs": [
        {
          "internalType": "bytes",
          "name": "result",
          "type": "bytes"
        }
      ],
      "stateMutability": "payable",
      "type": "function"
    },
    {
      "inputs": [
        {
          "internalType": "bytes[]",
          "name": "paths",
          "type": "bytes[]"
        },
        {
          "internalType": "uint128[]",
          "name": "amounts",
          "type": "uint128[]"
        },
        {
          "internalType": "uint24",
          "name": "maximumTickDivergence",
          "type": "uint24"
        },
        {
          "internalType": "uint32",
          "name": "secondsAgo",
          "type": "uint32"
        }
      ],
      "name": "checkOracleSlippage",
      "outputs": [],
      "stateMutability": "view",
      "type": "function"
    },
    {
      "inputs": [
        {
          "internalType": "bytes",
          "name": "path",
          "type": "bytes"
        },
        {
          "internalType": "uint24",
          "name": "maximumTickDivergence",
          "type": "uint24"
        },
        {
          "internalType": "uint32",
          "name": "secondsAgo",
          "type": "uint32"
        }
      ],
      "name": "checkOracleSlippage",
      "outputs": [],
      "stateMutability": "view",
      "type": "function"
    },
    {
      "inputs": [
        {
          "components": [
            {
              "internalType": "bytes",
              "name": "path",
              "type": "bytes"
            },
            {
              "internalType": "address",
              "name": "recipient",
              "type": "address"
            },
            {
              "internalType": "uint256",
              "name": "amountIn",
              "type": "uint256"
            },
            {
              "internalType": "uint256",
              "name": "amountOutMinimum",
              "type": "uint256"
            }
          ],
          "internalType": "struct IV3SwapRouter.ExactInputParams",
          "name": "params",
          "type": "tuple"
        }
      ],
      "name": "exactInput",
      "outputs": [
        {
          "internalType": "uint256",
          "name": "amountOut",
          "type": "uint256"
        }
      ],
      "stateMutability": "payable",
      "type": "function"
    },
    {
      "inputs": [
        {
          "components": [
            {
              "internalType": "address",
              "name": "tokenIn",
              "type": "address"
            },
            {
              "internalType": "address",
              "name": "tokenOut",
              "type": "address"
            },
            {
              "internalType": "uint24",
              "name": "fee",
              "type": "uint24"
            },
            {
              "internalType": "address",
              "name": "recipient",
              "type": "address"
            },
            {
              "internalType": "uint256",
              "name": "amountIn",
              "type": "uint256"
            },
            {
              "internalType": "uint256",
              "name": "amountOutMinimum",
              "type": "uint256"
            },
            {
              "internalType": "uint160",
              "name": "sqrtPriceLimitX96",
              "type": "uint160"
            }
          ],
          "internalType": "struct IV3SwapRouter.ExactInputSingleParams",
          "name": "params",
          "type": "tuple"
        }
      ],
      "name": "exactInputSingle",
      "outputs": [
        {
          "internalType": "uint256",
          "name": "amountOut",
          "type": "uint256"
        }
      ],
      "stateMutability": "payable",
      "type": "function"
    },
    {
      "inputs": [
        {
          "components": [
            {
              "internalType": "bytes",
              "name": "path",
              "type": "bytes"
            },
            {
              "internalType": "address",
              "name": "recipient",
              "type": "address"
            },
            {
              "internalType": "uint256",
              "name": "amountOut",
              "type": "uint256"
            },
            {
              "internalType": "uint256",
              "name": "amountInMaximum",
              "type": "uint256"
            }
          ],
          "internalType": "struct IV3SwapRouter.ExactOutputParams",
          "name": "params",
          "type": "tuple"
        }
      ],
      "name": "exactOutput",
      "outputs": [
        {
          "internalType": "uint256",
          "name": "amountIn",
          "type": "uint256"
        }
      ],
      "stateMutability": "payable",
      "type": "function"
    },
    {
      "inputs": [
        {
          "components": [
            {
              "internalType": "address",
              "name": "tokenIn",
              "type": "address"
            },
            {
              "internalType": "address",
              "name": "tokenOut",
              "type": "address"
            },
            {
              "internalType": "uint24",
              "name": "fee",
              "type": "uint24"
            },
            {
              "internalType": "address",
              "name": "recipient",
              "type": "address"
            },
            {
              "internalType": "uint256",
              "name": "amountOut",
              "type": "uint256"
            },
            {
              "internalType": "uint256",
              "name": "amountInMaximum",
              "type": "uint256"
            },
            {
              "internalType": "uint160",
              "name": "sqrtPriceLimitX96",
              "type": "uint160"
            }
          ],
          "internalType": "struct IV3SwapRouter.ExactOutputSingleParams",
          "name": "params",
          "type": "tuple"
        }
      ],
      "name": "exactOutputSingle",
      "outputs": [
        {
          "internalType": "uint256",
          "name": "amountIn",
          "type": "uint256"
        }
      ],
      "stateMutability": "payable",
      "type": "function"
    },
    {
      "inputs": [],
      "name": "factory",
      "outputs": [
        {
          "internalType": "address",
          "name": "",
          "type": "address"
        }
      ],
      "stateMutability": "view",
      "type": "function"
    },
    {
      "inputs": [],
      "name": "factoryV2",
      "outputs": [
        {
          "internalType": "address",
          "name": "",
          "type": "address"
        }
      ],
      "stateMutability": "view",
      "type": "function"
    },
    {
      "inputs": [
        {
          "internalType": "address",
          "name": "token",
          "type": "address"
        },
        {
          "internalType": "uint256",
          "name": "amount",
          "type": "uint256"
        }
      ],
      "name": "getApprovalType",
      "outputs": [
        {
          "internalType": "enum IApproveAndCall.ApprovalType",
          "name": "",
          "type": "uint8"
        }
      ],
      "stateMutability": "nonpayable",
      "type": "function"
    },
    {
      "inputs": [
        {
          "components": [
            {
              "internalType": "address",
              "name": "token0",
              "type": "address"
            },
            {
              "internalType": "address",
              "name": "token1",
              "type": "address"
            },
            {
              "internalType": "uint256",
              "name": "tokenId",
              "type": "uint256"
            },
            {
              "internalType": "uint256",
              "name": "amount0Min",
              "type": "uint256"
            },
            {
              "internalType": "uint256",
              "name": "amount1Min",
              "type": "uint256"
            }
          ],
          "internalType": "struct IApproveAndCall.IncreaseLiquidityParams",
          "name": "params",
          "type": "tuple"
        }
      ],
      "name": "increaseLiquidity",
      "outputs": [
        {
          "internalType": "bytes",
          "name": "result",
          "type": "bytes"
        }
      ],
      "stateMutability": "payable",
      "type": "function"
    },
    {
      "inputs": [
        {
          "components": [
            {
              "internalType": "address",
              "name": "token0",
              "type": "address"
            },
            {
              "internalType": "address",
              "name": "token1",
              "type": "address"
            },
            {
              "internalType": "uint24",
              "name": "fee",
              "type": "uint24"
            },
            {
              "internalType": "int24",
              "name": "tickLower",
              "type": "int24"
            },
            {
              "internalType": "int24",
              "name": "tickUpper",
              "type": "int24"
            },
            {
              "internalType": "uint256",
              "name": "amount0Min",
              "type": "uint256"
            },
            {
              "internalType": "uint256",
              "name": "amount1Min",
              "type": "uint256"
            },
            {
              "internalType": "address",
              "name": "recipient",
              "type": "address"
            }
          ],
          "internalType": "struct IApproveAndCall.MintParams",
          "name": "params",
          "type": "tuple"
        }
      ],
      "name": "mint",
      "outputs": [
        {
          "internalType": "bytes",
          "name": "result",
          "type": "bytes"
        }
      ],
      "stateMutability": "payable",
      "type": "function"
    },
    {
      "inputs": [
        {
          "internalType": "bytes32",
          "name": "previousBlockhash",
          "type": "bytes32"
        },
        {
          "internalType": "bytes[]",
          "name": "data",
          "type": "bytes[]"
        }
      ],
      "name": "multicall",
      "outputs": [
        {
          "internalType": "bytes[]",
          "name": "",
          "type": "bytes[]"
        }
      ],
      "stateMutability": "payable",
      "type": "function"
    },
    {
      "inputs": [
        {
          "internalType": "uint256",
          "name": "deadline",
          "type": "uint256"
        },
        {
          "internalType": "bytes[]",
          "name": "data",
          "type": "bytes[]"
        }
      ],
      "name": "multicall",
      "outputs": [
        {
          "internalType": "bytes[]",
          "name": "",
          "type": "bytes[]"
        }
      ],
      "stateMutability": "payable",
      "type": "function"
    },
    {
      "inputs": [
        {
          "internalType": "bytes[]",
          "name": "data",
          "type": "bytes[]"
        }
      ],
      "name": "multicall",
      "outputs": [
        {
          "internalType": "bytes[]",
          "name": "results",
          "type": "bytes[]"
        }
      ],
      "stateMutability": "payable",
      "type": "function"
    },
    {
      "inputs": [],
      "name": "positionManager",
      "outputs": [
        {
          "internalType": "address",
          "name": "",
          "type": "address"
        }
      ],
      "stateMutability": "view",
      "type": "function"
    },
    {
      "inputs": [
        {
          "internalType": "address",
          "name": "token",
          "type": "address"
        },
        {
          "internalType": "uint256",
          "name": "value",
          "type": "uint256"
        }
      ],
      "name": "pull",
      "outputs": [],
      "stateMutability": "payable",
      "type": "function"
    },
    {
      "inputs": [],
      "name": "refundETH",
      "outputs": [],
      "stateMutability": "payable",
      "type": "function"
    },
    {
      "inputs": [
        {
          "internalType": "address",
          "name": "token",
          "type": "address"
        },
        {
          "internalType": "uint256",
          "name": "value",
          "type": "uint256"
        },
        {
          "internalType": "uint256",
          "name": "deadline",
          "type": "uint256"
        },
        {
          "internalType": "uint8",
          "name": "v",
          "type": "uint8"
        },
        {
          "internalType": "bytes32",
          "name": "r",
          "type": "bytes32"
        },
        {
          "internalType": "bytes32",
          "name": "s",
          "type": "bytes32"
        }
      ],
      "name": "selfPermit",
      "outputs": [],
      "stateMutability": "payable",
      "type": "function"
    },
    {
      "inputs": [
        {
          "internalType": "address",
          "name": "token",
          "type": "address"
        },
        {
          "internalType": "uint256",
          "name": "nonce",
          "type": "uint256"
        },
        {
          "internalType": "uint256",
          "name": "expiry",
          "type": "uint256"
        },
        {
          "internalType": "uint8",
          "name": "v",
          "type": "uint8"
        },
        {
          "internalType": "bytes32",
          "name": "r",
          "type": "bytes32"
        },
        {
          "internalType": "bytes32",
          "name": "s",
          "type": "bytes32"
        }
      ],
      "name": "selfPermitAllowed",
      "outputs": [],
      "stateMutability": "payable",
      "type": "function"
    },
    {
      "inputs": [
        {
          "internalType": "address",
          "name": "token",
          "type": "address"
        },
        {
          "internalType": "uint256",
          "name": "nonce",
          "type": "uint256"
        },
        {
          "internalType": "uint256",
          "name": "expiry",
          "type": "uint256"
        },
        {
          "internalType": "uint8",
          "name": "v",
          "type": "uint8"
        },
        {
          "internalType": "bytes32",
          "name": "r",
          "type": "bytes32"
        },
        {
          "internalType": "bytes32",
          "name": "s",
          "type": "bytes32"
        }
      ],
      "name": "selfPermitAllowedIfNecessary",
      "outputs": [],
      "stateMutability": "payable",
      "type": "function"
    },
    {
      "inputs": [
        {
          "internalType": "address",
          "name": "token",
          "type": "address"
        },
        {
          "internalType": "uint256",
          "name": "value",
          "type": "uint256"
        },
        {
          "internalType": "uint256",
          "name": "deadline",
          "type": "uint256"
        },
        {
          "internalType": "uint8",
          "name": "v",
          "type": "uint8"
        },
        {
          "internalType": "bytes32",
          "name": "r",
          "type": "bytes32"
        },
        {
          "internalType": "bytes32",
          "name": "s",
          "type": "bytes32"
        }
      ],
      "name": "selfPermitIfNecessary",
      "outputs": [],
      "stateMutability": "payable",
      "type": "function"
    },
    {
      "inputs": [
        {
          "internalType": "uint256",
          "name": "amountIn",
          "type": "uint256"
        },
        {
          "internalType": "uint256",
          "name": "amountOutMin",
          "type": "uint256"
        },
        {
          "internalType": "address[]",
          "name": "path",
          "type": "address[]"
        },
        {
          "internalType": "address",
          "name": "to",
          "type": "address"
        }
      ],
      "name": "swapExactTokensForTokens",
      "outputs": [
        {
          "internalType": "uint256",
          "name": "amountOut",
          "type": "uint256"
        }
      ],
      "stateMutability": "payable",
      "type": "function"
    },
    {
      "inputs": [
        {
          "internalType": "uint256",
          "name": "amountOut",
          "type": "uint256"
        },
        {
          "internalType": "uint256",
          "name": "amountInMax",
          "type": "uint256"
        },
        {
          "internalType": "address[]",
          "name": "path",
          "type": "address[]"
        },
        {
          "internalType": "address",
          "name": "to",
          "type": "address"
        }
      ],
      "name": "swapTokensForExactTokens",
      "outputs": [
        {
          "internalType": "uint256",
          "name": "amountIn",
          "type": "uint256"
        }
      ],
      "stateMutability": "payable",
      "type": "function"
    },
    {
      "inputs": [
        {
          "internalType": "address",
          "name": "token",
          "type": "address"
        },
        {
          "internalType": "uint256",
          "name": "amountMinimum",
          "type": "uint256"
        },
        {
          "internalType": "address",
          "name": "recipient",
          "type": "address"
        }
      ],
      "name": "sweepToken",
      "outputs": [],
      "stateMutability": "payable",
      "type": "function"
    },
    {
      "inputs": [
        {
          "internalType": "address",
          "name": "token",
          "type": "address"
        },
        {
          "internalType": "uint256",
          "name": "amountMinimum",
          "type": "uint256"
        }
      ],
      "name": "sweepToken",
      "outputs": [],
      "stateMutability": "payable",
      "type": "function"
    },
    {
      "inputs": [
        {
          "internalType": "address",
          "name": "token",
          "type": "address"
        },
        {
          "internalType": "uint256",
          "name": "amountMinimum",
          "type": "uint256"
        },
        {
          "internalType": "uint256",
          "name": "feeBips",
          "type": "uint256"
        },
        {
          "internalType": "address",
          "name": "feeRecipient",
          "type": "address"
        }
      ],
      "name": "sweepTokenWithFee",
      "outputs": [],
      "stateMutability": "payable",
      "type": "function"
    },
    {
      "inputs": [
        {
          "internalType": "address",
          "name": "token",
          "type": "address"
        },
        {
          "internalType": "uint256",
          "name": "amountMinimum",
          "type": "uint256"
        },
        {
          "internalType": "address",
          "name": "recipient",
          "type": "address"
        },
        {
          "internalType": "uint256",
          "name": "feeBips",
          "type": "uint256"
        },
        {
          "internalType": "address",
          "name": "feeRecipient",
          "type": "address"
        }
      ],
      "name": "sweepTokenWithFee",
      "outputs": [],
      "stateMutability": "payable",
      "type": "function"
    },
    {
      "inputs": [
        {
          "internalType": "int256",
          "name": "amount0Delta",
          "type": "int256"
        },
        {
          "internalType": "int256",
          "name": "amount1Delta",
          "type": "int256"
        },
        {
          "internalType": "bytes",
          "name": "_data",
          "type": "bytes"
        }
      ],
      "name": "uniswapV3SwapCallback",
      "outputs": [],
      "stateMutability": "nonpayable",
      "type": "function"
    },
    {
      "inputs": [
        {
          "internalType": "uint256",
          "name": "amountMinimum",
          "type": "uint256"
        },
        {
          "internalType": "address",
          "name": "recipient",
          "type": "address"
        }
      ],
      "name": "unwrapWETH9",
      "outputs": [],
      "stateMutability": "payable",
      "type": "function"
    },
    {
      "inputs": [
        {
          "internalType": "uint256",
          "name": "amountMinimum",
          "type": "uint256"
        }
      ],
      "name": "unwrapWETH9",
      "outputs": [],
      "stateMutability": "payable",
      "type": "function"
    },
    {
      "inputs": [
        {
          "internalType": "uint256",
          "name": "amountMinimum",
          "type": "uint256"
        },
        {
          "internalType": "address",
          "name": "recipient",
          "type": "address"
        },
        {
          "internalType": "uint256",
          "name": "feeBips",
          "type": "uint256"
        },
        {
          "internalType": "address",
          "name": "feeRecipient",
          "type": "address"
        }
      ],
      "name": "unwrapWETH9WithFee",
      "outputs": [],
      "stateMutability": "payable",
      "type": "function"
    },
    {
      "inputs": [
        {
          "internalType": "uint256",
          "name": "amountMinimum",
          "type": "uint256"
        },
        {
          "internalType": "uint256",
          "name": "feeBips",
          "type": "uint256"
        },
        {
          "internalType": "address",
          "name": "feeRecipient",
          "type": "address"
        }
      ],
      "name": "unwrapWETH9WithFee",
      "outputs": [],
      "stateMutability": "payable",
      "type": "function"
    },
    {
      "inputs": [
        {
          "internalType": "uint256",
          "name": "value",
          "type": "uint256"
        }
      ],
      "name": "wrapETH",
      "outputs": [],
      "stateMutability": "payable",
      "type": "function"
    },
    {
      "stateMutability": "payable",
      "type": "receive"
    }
  ],
  "bytecode": "0x6101006040527fffffffffffffffffffffffffffffffffffffffffffffffffffffffffffffffff6000553480156200003657600080fd5b5060405162007a4f38038062007a4f83398181016040528101906200005c919062000161565b828185848173ffffffffffffffffffffffffffffffffffffffff1660808173ffffffffffffffffffffffffffffffffffffffff1660601b815250508073ffffffffffffffffffffffffffffffffffffffff1660a08173ffffffffffffffffffffffffffffffffffffffff1660601b8152505050508173ffffffffffffffffffffffffffffffffffffffff1660c08173ffffffffffffffffffffffffffffffffffffffff1660601b815250508073ffffffffffffffffffffffffffffffffffffffff1660e08173ffffffffffffffffffffffffffffffffffffffff1660601b815250505050505050506200021b565b6000815190506200015b8162000201565b92915050565b600080600080608085870312156200017857600080fd5b600062000188878288016200014a565b94505060206200019b878288016200014a565b9350506040620001ae878288016200014a565b9250506060620001c1878288016200014a565b91505092959194509250565b6000620001da82620001e1565b9050919050565b600073ffffffffffffffffffffffffffffffffffffffff82169050919050565b6200020c81620001cd565b81146200021857600080fd5b50565b60805160601c60a05160601c60c05160601c60e05160601c61778e620002c16000398061023b5280610d3752806115505280611693528061173b5280611a055280611b4852806134295280613489528061350a5250806122985280612a9952806145275280614ea95250806119c55280611ef152806123265280613a00525080610e635280610f4e528061125852806119a1528061368952806138aa525061778e6000f3fe6080604052600436106102345760003560e01c80639b2c0a371161012e578063dee00f35116100ab578063f100b2051161006f578063f100b205146107ed578063f25801a71461081d578063f2d5d56b14610846578063f3995c6714610862578063fa461e331461087e576102fc565b8063dee00f3514610733578063df2ab5bb14610770578063e0e189a01461078c578063e90a182f146107a8578063efdeed8e146107c4576102fc565b8063b858183f116100f2578063b858183f14610684578063c2e3140a146106b4578063c45a0155146106d0578063cab372ce146106fb578063d4ef38de14610717576102fc565b80639b2c0a37146105d0578063a4a78f0c146105ec578063ab3fdd5014610608578063ac9650d814610624578063b3a2af1314610654576102fc565b8063472b43f3116101bc578063571ac8b011610180578063571ac8b0146105125780635ae401dc1461052e578063639d71a91461055e57806368e0d4e11461057a578063791b98bc146105a5576102fc565b8063472b43f31461044f57806349404b7c1461047f578063496169971461049b5780634aa4a4fc146104b75780635023b4df146104e2576102fc565b80631c58db4f116102035780631c58db4f1461039b5780631f0464d1146103b75780633068c554146103e757806342712a67146104035780634659a49414610433576102fc565b806304e45aaf1461030157806309b813461461033157806311ed56c91461036157806312210e8a14610391576102fc565b366102fc577f000000000000000000000000000000000000000000000000000000000000000073ffffffffffffffffffffffffffffffffffffffff163373ffffffffffffffffffffffffffffffffffffffff16146102fa576040517f08c379a00000000000000000000000000000000000000000000000000000000081526004018080602001828103825260098152602001807f4e6f74205745544839000000000000000000000000000000000000000000000081525060200191505060405180910390fd5b005b600080fd5b61031b600480360381019061031691906164cc565b6108a7565b60405161032891906171d6565b60405180910390f35b61034b600480360381019061034691906164f5565b610a1e565b60405161035891906171d6565b60405180910390f35b61037b60048036038101906103769190616588565b610b38565b6040516103889190617063565b60405180910390f35b610399610d1f565b005b6103b560048036038101906103b09190616732565b610d35565b005b6103d160048036038101906103cc9190616279565b610db9565b6040516103de9190617041565b60405180910390f35b61040160048036038101906103fc919061608c565b610e49565b005b61041d600480360381019061041891906168ca565b610e5c565b60405161042a91906171d6565b60405180910390f35b61044d600480360381019061044891906160ef565b611087565b005b610469600480360381019061046491906168ca565b611164565b60405161047691906171d6565b60405180910390f35b61049960048036038101906104949190616784565b61154c565b005b6104b560048036038101906104b09190616732565b61172c565b005b3480156104c357600080fd5b506104cc611739565b6040516104d99190616f5f565b60405180910390f35b6104fc60048036038101906104f79190616536565b61175d565b60405161050991906171d6565b60405180910390f35b61052c60048036038101906105279190615f61565b61188b565b005b61054860048036038101906105439190616823565b6118c1565b6040516105559190617041565b60405180910390f35b61057860048036038101906105739190615f61565b611955565b005b34801561058657600080fd5b5061058f61199f565b60405161059c9190616f5f565b60405180910390f35b3480156105b157600080fd5b506105ba6119c3565b6040516105c79190616f5f565b60405180910390f35b6105ea60048036038101906105e591906167c0565b6119e7565b005b610606600480360381019061060191906160ef565b611c1c565b005b610622600480360381019061061d9190615f61565b611d1a565b005b61063e60048036038101906106399190616178565b611d67565b60405161064b9190617041565b60405180910390f35b61066e600480360381019061066991906162d1565b611eeb565b60405161067b9190617063565b60405180910390f35b61069e6004803603810190610699919061648b565b611fef565b6040516106ab91906171d6565b60405180910390f35b6106ce60048036038101906106c991906160ef565b6121b8565b005b3480156106dc57600080fd5b506106e5612296565b6040516106f29190616f5f565b60405180910390f35b61071560048036038101906107109190615f61565b6122ba565b005b610731600480360381019061072c919061687b565b6122f3565b005b34801561073f57600080fd5b5061075a60048036038101906107559190615f8a565b612304565b6040516107679190617085565b60405180910390f35b61078a60048036038101906107859190615fc6565b6124c5565b005b6107a660048036038101906107a19190616015565b6125fc565b005b6107c260048036038101906107bd9190615f8a565b612789565b005b3480156107d057600080fd5b506107eb60048036038101906107e691906161bd565b612798565b005b6108076004803603810190610802919061655f565b6127fb565b6040516108149190617063565b60405180910390f35b34801561082957600080fd5b50610844600480360381019061083f9190616312565b61290e565b005b610860600480360381019061085b9190615f8a565b61296f565b005b61087c600480360381019061087791906160ef565b61297f565b005b34801561088a57600080fd5b506108a560048036038101906108a091906163de565b612a51565b005b6000806000836080015114156109525760019050826000015173ffffffffffffffffffffffffffffffffffffffff166370a08231306040518263ffffffff1660e01b81526004016108f89190616f7a565b60206040518083038186803b15801561091057600080fd5b505afa158015610924573d6000803e3d6000fd5b505050506040513d601f19601f82011682018060405250810190610948919061675b565b8360800181815250505b6109cf836080015184606001518560c001516040518060400160405280886000015189604001518a6020015160405160200161099093929190616ef2565b6040516020818303038152906040528152602001866109af57336109b1565b305b73ffffffffffffffffffffffffffffffffffffffff16815250612bb0565b91508260a00151821015610a18576040517f08c379a0000000000000000000000000000000000000000000000000000000008152600401610a0f90617142565b60405180910390fd5b50919050565b6000610abf8260400135836020016020810190610a3b9190615f61565b60006040518060400160405280878060000190610a58919061723d565b8080601f016020809104026020016040519081016040528093929190818152602001838380828437600081840152601f19601f8201169050808301925050505050505081526020013373ffffffffffffffffffffffffffffffffffffffff16815250612dae565b5060005490508160600135811115610b0c576040517f08c379a0000000000000000000000000000000000000000000000000000000008152600401610b0390617102565b60405180910390fd5b7fffffffffffffffffffffffffffffffffffffffffffffffffffffffffffffffff600081905550919050565b6060610d18638831645660e01b604051806101600160405280856000016020810190610b649190615f61565b73ffffffffffffffffffffffffffffffffffffffff168152602001856020016020810190610b929190615f61565b73ffffffffffffffffffffffffffffffffffffffff168152602001856040016020810190610bc09190616709565b62ffffff168152602001856060016020810190610bdd9190616379565b60020b8152602001856080016020810190610bf89190616379565b60020b8152602001610c1b866000016020810190610c169190615f61565b612fe9565b8152602001610c3b866020016020810190610c369190615f61565b612fe9565b81526020018560a0013581526020018560c0013581526020018560e0016020810190610c679190615f61565b73ffffffffffffffffffffffffffffffffffffffff1681526020017fffffffffffffffffffffffffffffffffffffffffffffffffffffffffffffffff815250604051602401610cb6919061717d565b604051602081830303815290604052907bffffffffffffffffffffffffffffffffffffffffffffffffffffffff19166020820180517bffffffffffffffffffffffffffffffffffffffffffffffffffffffff8381831617835250505050611eeb565b9050919050565b6000471115610d3357610d32334761307b565b5b565b7f000000000000000000000000000000000000000000000000000000000000000073ffffffffffffffffffffffffffffffffffffffff1663d0e30db0826040518263ffffffff1660e01b81526004016000604051808303818588803b158015610d9d57600080fd5b505af1158015610db1573d6000803e3d6000fd5b505050505050565b60608380600143034014610e35576040517f08c379a00000000000000000000000000000000000000000000000000000000081526004018080602001828103825260098152602001807f426c6f636b68617368000000000000000000000000000000000000000000000081525060200191505060405180910390fd5b610e3f8484611d67565b9150509392505050565b610e5684843385856125fc565b50505050565b6000610eca7f000000000000000000000000000000000000000000000000000000000000000087868680806020026020016040519081016040528093929190818152602001838360200280828437600081840152601f19601f820116905080830192505050505050506131f7565b600081518110610ed657fe5b6020026020010151905084811115610f23576040517f08c379a0000000000000000000000000000000000000000000000000000000008152600401610f1a90617102565b60405180910390fd5b610fbc84846000818110610f3357fe5b9050602002016020810190610f489190615f61565b33610fb67f000000000000000000000000000000000000000000000000000000000000000088886000818110610f7a57fe5b9050602002016020810190610f8f9190615f61565b89896001818110610f9c57fe5b9050602002016020810190610fb19190615f61565b61330e565b84613427565b600173ffffffffffffffffffffffffffffffffffffffff168273ffffffffffffffffffffffffffffffffffffffff161415610ff957339150611033565b600273ffffffffffffffffffffffffffffffffffffffff168273ffffffffffffffffffffffffffffffffffffffff161415611032573091505b5b61107e848480806020026020016040519081016040528093929190818152602001838360200280828437600081840152601f19601f8201169050808301925050505050505083613632565b95945050505050565b8573ffffffffffffffffffffffffffffffffffffffff16638fcbaf0c3330888860018989896040518963ffffffff1660e01b8152600401808973ffffffffffffffffffffffffffffffffffffffff1681526020018873ffffffffffffffffffffffffffffffffffffffff16815260200187815260200186815260200185151581526020018460ff16815260200183815260200182815260200198505050505050505050600060405180830381600087803b15801561114457600080fd5b505af1158015611158573d6000803e3d6000fd5b50505050505050505050565b600080600087141561122157600190508484600081811061118157fe5b90506020020160208101906111969190615f61565b73ffffffffffffffffffffffffffffffffffffffff166370a08231306040518263ffffffff1660e01b81526004016111ce9190616f7a565b60206040518083038186803b1580156111e657600080fd5b505afa1580156111fa573d6000803e3d6000fd5b505050506040513d601f19601f8201168201806040525081019061121e919061675b565b96505b6112c68585600081811061123157fe5b90506020020160208101906112469190615f61565b826112515733611253565b305b6112c07f00000000000000000000000000000000000000000000000000000000000000008989600081811061128457fe5b90506020020160208101906112999190615f61565b8a8a60018181106112a657fe5b90506020020160208101906112bb9190615f61565b61330e565b8a613427565b600173ffffffffffffffffffffffffffffffffffffffff168373ffffffffffffffffffffffffffffffffffffffff1614156113035733925061133d565b600273ffffffffffffffffffffffffffffffffffffffff168373ffffffffffffffffffffffffffffffffffffffff16141561133c573092505b5b600085856001888890500381811061135157fe5b90506020020160208101906113669190615f61565b73ffffffffffffffffffffffffffffffffffffffff166370a08231856040518263ffffffff1660e01b815260040161139e9190616f5f565b60206040518083038186803b1580156113b657600080fd5b505afa1580156113ca573d6000803e3d6000fd5b505050506040513d601f19601f820116820180604052508101906113ee919061675b565b905061143b868680806020026020016040519081016040528093929190818152602001838360200280828437600081840152601f19601f8201169050808301925050505050505085613632565b6114fc81878760018a8a90500381811061145157fe5b90506020020160208101906114669190615f61565b73ffffffffffffffffffffffffffffffffffffffff166370a08231876040518263ffffffff1660e01b815260040161149e9190616f5f565b60206040518083038186803b1580156114b657600080fd5b505afa1580156114ca573d6000803e3d6000fd5b505050506040513d601f19601f820116820180604052508101906114ee919061675b565b6139c090919063ffffffff16565b925086831015611541576040517f08c379a000000000000000000000000000000000000000000000000000000000815260040161153890617142565b60405180910390fd5b505095945050505050565b60007f000000000000000000000000000000000000000000000000000000000000000073ffffffffffffffffffffffffffffffffffffffff166370a08231306040518263ffffffff1660e01b8152600401808273ffffffffffffffffffffffffffffffffffffffff16815260200191505060206040518083038186803b1580156115d557600080fd5b505afa1580156115e9573d6000803e3d6000fd5b505050506040513d60208110156115ff57600080fd5b8101908080519060200190929190505050905082811015611688576040517f08c379a00000000000000000000000000000000000000000000000000000000081526004018080602001828103825260128152602001807f496e73756666696369656e74205745544839000000000000000000000000000081525060200191505060405180910390fd5b6000811115611727577f000000000000000000000000000000000000000000000000000000000000000073ffffffffffffffffffffffffffffffffffffffff16632e1a7d4d826040518263ffffffff1660e01b815260040180828152602001915050600060405180830381600087803b15801561170457600080fd5b505af1158015611718573d6000803e3d6000fd5b50505050611726828261307b565b5b505050565b611736813361154c565b50565b7f000000000000000000000000000000000000000000000000000000000000000081565b6000611816826080013583606001602081019061177a9190615f61565b8460c001602081019061178d9190616642565b60405180604001604052808760200160208101906117ab9190615f61565b8860400160208101906117be9190616709565b8960000160208101906117d19190615f61565b6040516020016117e393929190616ef2565b60405160208183030381529060405281526020013373ffffffffffffffffffffffffffffffffffffffff16815250612dae565b90508160a0013581111561185f576040517f08c379a000000000000000000000000000000000000000000000000000000000815260040161185690617102565b60405180910390fd5b7fffffffffffffffffffffffffffffffffffffffffffffffffffffffffffffffff600081905550919050565b6118b5817fffffffffffffffffffffffffffffffffffffffffffffffffffffffffffffffff6139da565b6118be57600080fd5b50565b606083806118cd613b15565b1115611941576040517f08c379a00000000000000000000000000000000000000000000000000000000081526004018080602001828103825260138152602001807f5472616e73616374696f6e20746f6f206f6c640000000000000000000000000081525060200191505060405180910390fd5b61194b8484611d67565b9150509392505050565b6119608160006139da565b61196957600080fd5b611993817fffffffffffffffffffffffffffffffffffffffffffffffffffffffffffffffff6139da565b61199c57600080fd5b50565b7f000000000000000000000000000000000000000000000000000000000000000081565b7f000000000000000000000000000000000000000000000000000000000000000081565b6000821180156119f8575060648211155b611a0157600080fd5b60007f000000000000000000000000000000000000000000000000000000000000000073ffffffffffffffffffffffffffffffffffffffff166370a08231306040518263ffffffff1660e01b8152600401808273ffffffffffffffffffffffffffffffffffffffff16815260200191505060206040518083038186803b158015611a8a57600080fd5b505afa158015611a9e573d6000803e3d6000fd5b505050506040513d6020811015611ab457600080fd5b8101908080519060200190929190505050905084811015611b3d576040517f08c379a00000000000000000000000000000000000000000000000000000000081526004018080602001828103825260128152602001807f496e73756666696369656e74205745544839000000000000000000000000000081525060200191505060405180910390fd5b6000811115611c15577f000000000000000000000000000000000000000000000000000000000000000073ffffffffffffffffffffffffffffffffffffffff16632e1a7d4d826040518263ffffffff1660e01b815260040180828152602001915050600060405180830381600087803b158015611bb957600080fd5b505af1158015611bcd573d6000803e3d6000fd5b505050506000612710611be98584613b1d90919063ffffffff16565b81611bf057fe5b0490506000811115611c0757611c06838261307b565b5b611c138582840361307b565b505b5050505050565b7fffffffffffffffffffffffffffffffffffffffffffffffffffffffffffffffff8673ffffffffffffffffffffffffffffffffffffffff1663dd62ed3e33306040518363ffffffff1660e01b8152600401808373ffffffffffffffffffffffffffffffffffffffff1681526020018273ffffffffffffffffffffffffffffffffffffffff1681526020019250505060206040518083038186803b158015611cc257600080fd5b505afa158015611cd6573d6000803e3d6000fd5b505050506040513d6020811015611cec57600080fd5b81019080805190602001909291905050501015611d1257611d11868686868686611087565b5b505050505050565b611d258160006139da565b611d2e57600080fd5b611d5b8160017fffffffffffffffffffffffffffffffffffffffffffffffffffffffffffffffff036139da565b611d6457600080fd5b50565b60608282905067ffffffffffffffff81118015611d8357600080fd5b50604051908082528060200260200182016040528015611db757816020015b6060815260200190600190039081611da25790505b50905060005b83839050811015611ee4576000803073ffffffffffffffffffffffffffffffffffffffff16868685818110611dee57fe5b9050602002810190611e00919061723d565b604051611e0e929190616f2f565b600060405180830381855af49150503d8060008114611e49576040519150601f19603f3d011682016040523d82523d6000602084013e611e4e565b606091505b509150915081611ebd57604481511015611e6757600080fd5b60048101905080806020019051810190611e81919061644a565b6040517f08c379a0000000000000000000000000000000000000000000000000000000008152600401611eb491906170a0565b60405180910390fd5b80848481518110611eca57fe5b602002602001018190525050508080600101915050611dbd565b5092915050565b606060007f000000000000000000000000000000000000000000000000000000000000000073ffffffffffffffffffffffffffffffffffffffff1683604051611f349190616f48565b6000604051808303816000865af19150503d8060008114611f71576040519150601f19603f3d011682016040523d82523d6000602084013e611f76565b606091505b50809350819250505080611fe957604482511015611f9357600080fd5b60048201915081806020019051810190611fad919061644a565b6040517f08c379a0000000000000000000000000000000000000000000000000000000008152600401611fe091906170a0565b60405180910390fd5b50919050565b6000806000836040015114156120aa576001905060006120128460000151613b49565b505090508073ffffffffffffffffffffffffffffffffffffffff166370a08231306040518263ffffffff1660e01b815260040161204f9190616f7a565b60206040518083038186803b15801561206757600080fd5b505afa15801561207b573d6000803e3d6000fd5b505050506040513d601f19601f8201168201806040525081019061209f919061675b565b846040018181525050505b6000816120b757336120b9565b305b90505b60011561216a5760006120d28560000151613b9a565b905061212b8560400151826120eb5786602001516120ed565b305b600060405180604001604052806121078b60000151613bb5565b81526020018773ffffffffffffffffffffffffffffffffffffffff16815250612bb0565b85604001818152505080156121575730915061214a8560000151613bdb565b8560000181905250612164565b846040015193505061216a565b506120bc565b83606001518310156121b1576040517f08c379a00000000000000000000000000000000000000000000000000000000081526004016121a890617142565b60405180910390fd5b5050919050565b848673ffffffffffffffffffffffffffffffffffffffff1663dd62ed3e33306040518363ffffffff1660e01b8152600401808373ffffffffffffffffffffffffffffffffffffffff1681526020018273ffffffffffffffffffffffffffffffffffffffff1681526020019250505060206040518083038186803b15801561223e57600080fd5b505afa158015612252573d6000803e3d6000fd5b505050506040513d602081101561226857600080fd5b8101908080519060200190929190505050101561228e5761228d86868686868661297f565b5b505050505050565b7f000000000000000000000000000000000000000000000000000000000000000081565b6122e78160017fffffffffffffffffffffffffffffffffffffffffffffffffffffffffffffffff036139da565b6122f057600080fd5b50565b6122ff833384846119e7565b505050565b6000818373ffffffffffffffffffffffffffffffffffffffff1663dd62ed3e307f00000000000000000000000000000000000000000000000000000000000000006040518363ffffffff1660e01b8152600401612362929190616f95565b60206040518083038186803b15801561237a57600080fd5b505afa15801561238e573d6000803e3d6000fd5b505050506040513d601f19601f820116820180604052508101906123b2919061675b565b106123c057600090506124bf565b6123ea837fffffffffffffffffffffffffffffffffffffffffffffffffffffffffffffffff6139da565b156123f857600190506124bf565b6124258360017fffffffffffffffffffffffffffffffffffffffffffffffffffffffffffffffff036139da565b1561243357600290506124bf565b61243e8360006139da565b61244757600080fd5b612471837fffffffffffffffffffffffffffffffffffffffffffffffffffffffffffffffff6139da565b1561247f57600390506124bf565b6124ac8360017fffffffffffffffffffffffffffffffffffffffffffffffffffffffffffffffff036139da565b156124ba57600490506124bf565b600080fd5b92915050565b60008373ffffffffffffffffffffffffffffffffffffffff166370a08231306040518263ffffffff1660e01b8152600401808273ffffffffffffffffffffffffffffffffffffffff16815260200191505060206040518083038186803b15801561252e57600080fd5b505afa158015612542573d6000803e3d6000fd5b505050506040513d602081101561255857600080fd5b81019080805190602001909291905050509050828110156125e1576040517f08c379a00000000000000000000000000000000000000000000000000000000081526004018080602001828103825260128152602001807f496e73756666696369656e7420746f6b656e000000000000000000000000000081525060200191505060405180910390fd5b60008111156125f6576125f5848383613c04565b5b50505050565b60008211801561260d575060648211155b61261657600080fd5b60008573ffffffffffffffffffffffffffffffffffffffff166370a08231306040518263ffffffff1660e01b8152600401808273ffffffffffffffffffffffffffffffffffffffff16815260200191505060206040518083038186803b15801561267f57600080fd5b505afa158015612693573d6000803e3d6000fd5b505050506040513d60208110156126a957600080fd5b8101908080519060200190929190505050905084811015612732576040517f08c379a00000000000000000000000000000000000000000000000000000000081526004018080602001828103825260128152602001807f496e73756666696369656e7420746f6b656e000000000000000000000000000081525060200191505060405180910390fd5b60008111156127815760006127106127538584613b1d90919063ffffffff16565b8161275a57fe5b049050600081111561277257612771878483613c04565b5b61277f8786838503613c04565b505b505050505050565b6127948282336124c5565b5050565b6000806127a6868685613e05565b915091508362ffffff16818303126127f3576040517f08c379a00000000000000000000000000000000000000000000000000000000081526004016127ea90617122565b60405180910390fd5b505050505050565b606061290763219f5d1760e01b6040518060c00160405280856040013581526020016128388660000160208101906128339190615f61565b612fe9565b81526020016128588660200160208101906128539190615f61565b612fe9565b815260200185606001358152602001856080013581526020017fffffffffffffffffffffffffffffffffffffffffffffffffffffffffffffffff8152506040516024016128a59190617162565b604051602081830303815290604052907bffffffffffffffffffffffffffffffffffffffffffffffffffffffff19166020820180517bffffffffffffffffffffffffffffffffffffffffffffffffffffffff8381831617835250505050611eeb565b9050919050565b60008061291b8584614030565b915091508362ffffff1681830312612968576040517f08c379a000000000000000000000000000000000000000000000000000000000815260040161295f90617122565b60405180910390fd5b5050505050565b61297b823330846142e0565b5050565b8573ffffffffffffffffffffffffffffffffffffffff1663d505accf333088888888886040518863ffffffff1660e01b8152600401808873ffffffffffffffffffffffffffffffffffffffff1681526020018773ffffffffffffffffffffffffffffffffffffffff1681526020018681526020018581526020018460ff168152602001838152602001828152602001975050505050505050600060405180830381600087803b158015612a3157600080fd5b505af1158015612a45573d6000803e3d6000fd5b50505050505050505050565b6000841380612a605750600083135b612a6957600080fd5b60008282810190612a7a91906165b2565b90506000806000612a8e8460000151613b49565b925092509250612ac07f0000000000000000000000000000000000000000000000000000000000000000848484614500565b5060008060008a13612b01578473ffffffffffffffffffffffffffffffffffffffff168473ffffffffffffffffffffffffffffffffffffffff161089612b32565b8373ffffffffffffffffffffffffffffffffffffffff168573ffffffffffffffffffffffffffffffffffffffff16108a5b915091508115612b5157612b4c8587602001513384613427565b612ba4565b612b5e8660000151613b9a565b15612b8b57612b708660000151613bdb565b8660000181905250612b858133600089612dae565b50612ba3565b80600081905550612ba28487602001513384613427565b5b5b50505050505050505050565b6000600173ffffffffffffffffffffffffffffffffffffffff168473ffffffffffffffffffffffffffffffffffffffff161415612bef57339350612c29565b600273ffffffffffffffffffffffffffffffffffffffff168473ffffffffffffffffffffffffffffffffffffffff161415612c28573093505b5b6000806000612c3b8560000151613b49565b92509250925060008273ffffffffffffffffffffffffffffffffffffffff168473ffffffffffffffffffffffffffffffffffffffff16109050600080612c82868686614520565b73ffffffffffffffffffffffffffffffffffffffff1663128acb088b85612ca88f61455f565b60008e73ffffffffffffffffffffffffffffffffffffffff1614612ccc578d612cf9565b87612cee57600173fffd8963efd1fc6a506488495d951d5263988d2603612cf8565b60016401000276a3015b5b8d604051602001612d0a9190617199565b6040516020818303038152906040526040518663ffffffff1660e01b8152600401612d39959493929190616fbe565b6040805180830381600087803b158015612d5257600080fd5b505af1158015612d66573d6000803e3d6000fd5b505050506040513d601f19601f82011682018060405250810190612d8a91906163a2565b9150915082612d995781612d9b565b805b6000039650505050505050949350505050565b6000600173ffffffffffffffffffffffffffffffffffffffff168473ffffffffffffffffffffffffffffffffffffffff161415612ded57339350612e27565b600273ffffffffffffffffffffffffffffffffffffffff168473ffffffffffffffffffffffffffffffffffffffff161415612e26573093505b5b6000806000612e398560000151613b49565b92509250925060008373ffffffffffffffffffffffffffffffffffffffff168373ffffffffffffffffffffffffffffffffffffffff16109050600080612e80858786614520565b73ffffffffffffffffffffffffffffffffffffffff1663128acb088b85612ea68f61455f565b60000360008e73ffffffffffffffffffffffffffffffffffffffff1614612ecd578d612efa565b87612eef57600173fffd8963efd1fc6a506488495d951d5263988d2603612ef9565b60016401000276a3015b5b8d604051602001612f0b9190617199565b6040516020818303038152906040526040518663ffffffff1660e01b8152600401612f3a959493929190616fbe565b6040805180830381600087803b158015612f5357600080fd5b505af1158015612f67573d6000803e3d6000fd5b505050506040513d601f19601f82011682018060405250810190612f8b91906163a2565b91509150600083612fa0578183600003612fa6565b82826000035b809250819950505060008a73ffffffffffffffffffffffffffffffffffffffff161415612fda578b8114612fd957600080fd5b5b50505050505050949350505050565b60008173ffffffffffffffffffffffffffffffffffffffff166370a08231306040518263ffffffff1660e01b81526004016130249190616f5f565b60206040518083038186803b15801561303c57600080fd5b505afa158015613050573d6000803e3d6000fd5b505050506040513d601f19601f82011682018060405250810190613074919061675b565b9050919050565b60008273ffffffffffffffffffffffffffffffffffffffff1682600067ffffffffffffffff811180156130ad57600080fd5b506040519080825280601f01601f1916602001820160405280156130e05781602001600182028036833780820191505090505b506040518082805190602001908083835b6020831061311457805182526020820191506020810190506020830392506130f1565b6001836020036101000a03801982511681845116808217855250505050505090500191505060006040518083038185875af1925050503d8060008114613176576040519150601f19603f3d011682016040523d82523d6000602084013e61317b565b606091505b50509050806131f2576040517f08c379a00000000000000000000000000000000000000000000000000000000081526004018080602001828103825260038152602001807f535445000000000000000000000000000000000000000000000000000000000081525060200191505060405180910390fd5b505050565b606060028251101561320857600080fd5b815167ffffffffffffffff8111801561322057600080fd5b5060405190808252806020026020018201604052801561324f5781602001602082028036833780820191505090505b509050828160018351038151811061326357fe5b6020026020010181815250506000600183510390505b6000811115613306576000806132b98786600186038151811061329857fe5b60200260200101518786815181106132ac57fe5b6020026020010151614595565b915091506132db8484815181106132cc57fe5b602002602001015183836146be565b8460018503815181106132ea57fe5b6020026020010181815250505050808060019003915050613279565b509392505050565b600080600061331d85856147cc565b91509150858282604051602001808373ffffffffffffffffffffffffffffffffffffffff1660601b81526014018273ffffffffffffffffffffffffffffffffffffffff1660601b8152601401925050506040516020818303038152906040528051906020012060405160200180807fff000000000000000000000000000000000000000000000000000000000000008152506001018373ffffffffffffffffffffffffffffffffffffffff1660601b8152601401828152602001807f96e8ac4277198ff8b6f785478aa9a39f403cb768dd02cbee326c3e7da348845f815250602001925050506040516020818303038152906040528051906020012060001c925050509392505050565b7f000000000000000000000000000000000000000000000000000000000000000073ffffffffffffffffffffffffffffffffffffffff168473ffffffffffffffffffffffffffffffffffffffff161480156134825750804710155b156135da577f000000000000000000000000000000000000000000000000000000000000000073ffffffffffffffffffffffffffffffffffffffff1663d0e30db0826040518263ffffffff1660e01b81526004016000604051808303818588803b1580156134ef57600080fd5b505af1158015613503573d6000803e3d6000fd5b50505050507f000000000000000000000000000000000000000000000000000000000000000073ffffffffffffffffffffffffffffffffffffffff1663a9059cbb83836040518363ffffffff1660e01b8152600401808373ffffffffffffffffffffffffffffffffffffffff16815260200182815260200192505050602060405180830381600087803b15801561359957600080fd5b505af11580156135ad573d6000803e3d6000fd5b505050506040513d60208110156135c357600080fd5b81019080805190602001909291905050505061362c565b3073ffffffffffffffffffffffffffffffffffffffff168373ffffffffffffffffffffffffffffffffffffffff16141561361e57613619848383613c04565b61362b565b61362a848484846142e0565b5b5b50505050565b60005b60018351038110156139bb5760008084838151811061365057fe5b602002602001015185600185018151811061366757fe5b602002602001015191509150600061367f83836147cc565b50905060006136af7f0000000000000000000000000000000000000000000000000000000000000000858561330e565b90506000806000808473ffffffffffffffffffffffffffffffffffffffff16630902f1ac6040518163ffffffff1660e01b815260040160606040518083038186803b1580156136fd57600080fd5b505afa158015613711573d6000803e3d6000fd5b505050506040513d601f19601f8201168201806040525081019061373591906165f3565b506dffffffffffffffffffffffffffff1691506dffffffffffffffffffffffffffff1691506000808773ffffffffffffffffffffffffffffffffffffffff168a73ffffffffffffffffffffffffffffffffffffffff161461379757828461379a565b83835b91509150613839828b73ffffffffffffffffffffffffffffffffffffffff166370a082318a6040518263ffffffff1660e01b81526004016137db9190616f5f565b60206040518083038186803b1580156137f357600080fd5b505afa158015613807573d6000803e3d6000fd5b505050506040513d601f19601f8201168201806040525081019061382b919061675b565b6139c090919063ffffffff16565b955061384686838361488e565b9450505050506000808573ffffffffffffffffffffffffffffffffffffffff168873ffffffffffffffffffffffffffffffffffffffff161461388a5782600061388e565b6000835b91509150600060028c51038a106138a5578a6138e7565b6138e67f0000000000000000000000000000000000000000000000000000000000000000898e60028e01815181106138d957fe5b602002602001015161330e565b5b90508573ffffffffffffffffffffffffffffffffffffffff1663022c0d9f848484600067ffffffffffffffff8111801561392057600080fd5b506040519080825280601f01601f1916602001820160405280156139535781602001600182028036833780820191505090505b506040518563ffffffff1660e01b815260040161397394939291906171f1565b600060405180830381600087803b15801561398d57600080fd5b505af11580156139a1573d6000803e3d6000fd5b505050505050505050505050508080600101915050613635565b505050565b60008282840391508111156139d457600080fd5b92915050565b60008060008473ffffffffffffffffffffffffffffffffffffffff1663095ea7b360e01b7f000000000000000000000000000000000000000000000000000000000000000086604051602401613a31929190617018565b604051602081830303815290604052907bffffffffffffffffffffffffffffffffffffffffffffffffffffffff19166020820180517bffffffffffffffffffffffffffffffffffffffffffffffffffffffff8381831617835250505050604051613a9b9190616f48565b6000604051808303816000865af19150503d8060008114613ad8576040519150601f19603f3d011682016040523d82523d6000602084013e613add565b606091505b5091509150818015613b0b5750600081511480613b0a575080806020019051810190613b099190616250565b5b5b9250505092915050565b600042905090565b600080831480613b3a5750818383850292508281613b3757fe5b04145b613b4357600080fd5b92915050565b6000806000613b6260008561498f90919063ffffffff16565b9250613b78601485614aa890919063ffffffff16565b9050613b9160036014018561498f90919063ffffffff16565b91509193909250565b60006003601401601460036014010101825110159050919050565b6060613bd46000601460036014010184614bb29092919063ffffffff16565b9050919050565b6060613bfd6003601401600360140184510384614bb29092919063ffffffff16565b9050919050565b6000808473ffffffffffffffffffffffffffffffffffffffff1663a9059cbb60e01b8585604051602401808373ffffffffffffffffffffffffffffffffffffffff16815260200182815260200192505050604051602081830303815290604052907bffffffffffffffffffffffffffffffffffffffffffffffffffffffff19166020820180517bffffffffffffffffffffffffffffffffffffffffffffffffffffffff83818316178352505050506040518082805190602001908083835b60208310613ce55780518252602082019150602081019050602083039250613cc2565b6001836020036101000a0380198251168184511680821785525050505050509050019150506000604051808303816000865af19150503d8060008114613d47576040519150601f19603f3d011682016040523d82523d6000602084013e613d4c565b606091505b5091509150818015613d8c5750600081511480613d8b5750808060200190516020811015613d7957600080fd5b81019080805190602001909291905050505b5b613dfe576040517f08c379a00000000000000000000000000000000000000000000000000000000081526004018080602001828103825260028152602001807f535400000000000000000000000000000000000000000000000000000000000081525060200191505060405180910390fd5b5050505050565b6000808351855114613e1657600080fd5b6000855167ffffffffffffffff81118015613e3057600080fd5b50604051908082528060200260200182016040528015613e6a57816020015b613e57615864565b815260200190600190039081613e4f5790505b5090506000865167ffffffffffffffff81118015613e8757600080fd5b50604051908082528060200260200182016040528015613ec157816020015b613eae615864565b815260200190600190039081613ea65790505b50905060005b875181101561400957600080613ef08a8481518110613ee257fe5b602002602001015189614030565b91509150613efd82614d9c565b858481518110613f0957fe5b60200260200101516000019060020b908160020b81525050613f2a81614d9c565b848481518110613f3657fe5b60200260200101516000019060020b908160020b81525050888381518110613f5a57fe5b6020026020010151858481518110613f6e57fe5b6020026020010151602001906fffffffffffffffffffffffffffffffff1690816fffffffffffffffffffffffffffffffff1681525050888381518110613fb057fe5b6020026020010151848481518110613fc457fe5b6020026020010151602001906fffffffffffffffffffffffffffffffff1690816fffffffffffffffffffffffffffffffff168152505050508080600101915050613ec7565b5061401382614db5565b60020b935061402181614db5565b60020b92505050935093915050565b60008060008061403f86614e87565b9050600080600090505b8281101561428557600080600061405f8b613b49565b9250925092506000614072848484614ea2565b905060008060008d63ffffffff1614156140a85761408f83614ee1565b8160020b91508060020b9050809250819350505061415c565b6140b2838e61519a565b8160020b915050809250508273ffffffffffffffffffffffffffffffffffffffff16633850c7bd6040518163ffffffff1660e01b815260040160e06040518083038186803b15801561410357600080fd5b505afa158015614117573d6000803e3d6000fd5b505050506040513d601f19601f8201168201806040525081019061413b919061666b565b909192939495508560020b9550909192935090919250909150905050809150505b6001890387141561419d578473ffffffffffffffffffffffffffffffffffffffff168673ffffffffffffffffffffffffffffffffffffffff161099506141ac565b6141a68e613bdb565b9d508597505b60008088148061424f57508673ffffffffffffffffffffffffffffffffffffffff168973ffffffffffffffffffffffffffffffffffffffff161061421e578673ffffffffffffffffffffffffffffffffffffffff168673ffffffffffffffffffffffffffffffffffffffff161061424e565b8573ffffffffffffffffffffffffffffffffffffffff168773ffffffffffffffffffffffffffffffffffffffff16105b5b9050801561426657828d019c50818c019b50614271565b828d039c50818c039b505b505050505050508080600101915050614049565b50826142d6577fffffffffffffffffffffffffffffffffffffffffffffffffffffffffffffffff850294507fffffffffffffffffffffffffffffffffffffffffffffffffffffffffffffffff840293505b5050509250929050565b6000808573ffffffffffffffffffffffffffffffffffffffff166323b872dd60e01b868686604051602401808473ffffffffffffffffffffffffffffffffffffffff1681526020018373ffffffffffffffffffffffffffffffffffffffff1681526020018281526020019350505050604051602081830303815290604052907bffffffffffffffffffffffffffffffffffffffffffffffffffffffff19166020820180517bffffffffffffffffffffffffffffffffffffffffffffffffffffffff83818316178352505050506040518082805190602001908083835b602083106143df57805182526020820191506020810190506020830392506143bc565b6001836020036101000a0380198251168184511680821785525050505050509050019150506000604051808303816000865af19150503d8060008114614441576040519150601f19603f3d011682016040523d82523d6000602084013e614446565b606091505b50915091508180156144865750600081511480614485575080806020019051602081101561447357600080fd5b81019080805190602001909291905050505b5b6144f8576040517f08c379a00000000000000000000000000000000000000000000000000000000081526004018080602001828103825260038152602001807f535446000000000000000000000000000000000000000000000000000000000081525060200191505060405180910390fd5b505050505050565b600061451685614511868686615607565b6156a3565b9050949350505050565b60006145567f0000000000000000000000000000000000000000000000000000000000000000614551868686615607565b6156ef565b90509392505050565b60007f8000000000000000000000000000000000000000000000000000000000000000821061458d57600080fd5b819050919050565b60008060006145a485856147cc565b5090506000806145b588888861330e565b73ffffffffffffffffffffffffffffffffffffffff16630902f1ac6040518163ffffffff1660e01b815260040160606040518083038186803b1580156145fa57600080fd5b505afa15801561460e573d6000803e3d6000fd5b505050506040513d606081101561462457600080fd5b81019080805190602001909291908051906020019092919080519060200190929190505050506dffffffffffffffffffffffffffff1691506dffffffffffffffffffffffffffff1691508273ffffffffffffffffffffffffffffffffffffffff168773ffffffffffffffffffffffffffffffffffffffff16146146a85780826146ab565b81815b8095508196505050505050935093915050565b6000808411614735576040517f08c379a000000000000000000000000000000000000000000000000000000000815260040180806020018281038252601a8152602001807f494e53554646494349454e545f4f55545055545f414d4f554e5400000000000081525060200191505060405180910390fd5b6000831180156147455750600082115b61474e57600080fd5b60006147776103e86147698787613b1d90919063ffffffff16565b613b1d90919063ffffffff16565b905060006147a26103e561479488876139c090919063ffffffff16565b613b1d90919063ffffffff16565b90506147c160018284816147b257fe5b0461584a90919063ffffffff16565b925050509392505050565b6000808273ffffffffffffffffffffffffffffffffffffffff168473ffffffffffffffffffffffffffffffffffffffff16141561480857600080fd5b8273ffffffffffffffffffffffffffffffffffffffff168473ffffffffffffffffffffffffffffffffffffffff1610614842578284614845565b83835b8092508193505050600073ffffffffffffffffffffffffffffffffffffffff168273ffffffffffffffffffffffffffffffffffffffff16141561488757600080fd5b9250929050565b6000808411614905576040517f08c379a00000000000000000000000000000000000000000000000000000000081526004018080602001828103825260198152602001807f494e53554646494349454e545f494e5055545f414d4f554e540000000000000081525060200191505060405180910390fd5b6000831180156149155750600082115b61491e57600080fd5b60006149356103e586613b1d90919063ffffffff16565b9050600061494c8483613b1d90919063ffffffff16565b90506000614977836149696103e889613b1d90919063ffffffff16565b61584a90919063ffffffff16565b905080828161498257fe5b0493505050509392505050565b600081601483011015614a0a576040517f08c379a00000000000000000000000000000000000000000000000000000000081526004018080602001828103825260128152602001807f746f416464726573735f6f766572666c6f77000000000000000000000000000081525060200191505060405180910390fd5b6014820183511015614a84576040517f08c379a00000000000000000000000000000000000000000000000000000000081526004018080602001828103825260158152602001807f746f416464726573735f6f75744f66426f756e6473000000000000000000000081525060200191505060405180910390fd5b60006c01000000000000000000000000836020860101510490508091505092915050565b600081600383011015614b23576040517f08c379a00000000000000000000000000000000000000000000000000000000081526004018080602001828103825260118152602001807f746f55696e7432345f6f766572666c6f7700000000000000000000000000000081525060200191505060405180910390fd5b6003820183511015614b9d576040517f08c379a00000000000000000000000000000000000000000000000000000000081526004018080602001828103825260148152602001807f746f55696e7432345f6f75744f66426f756e647300000000000000000000000081525060200191505060405180910390fd5b60008260038501015190508091505092915050565b606081601f83011015614c2d576040517f08c379a000000000000000000000000000000000000000000000000000000000815260040180806020018281038252600e8152602001807f736c6963655f6f766572666c6f7700000000000000000000000000000000000081525060200191505060405180910390fd5b828284011015614ca5576040517f08c379a000000000000000000000000000000000000000000000000000000000815260040180806020018281038252600e8152602001807f736c6963655f6f766572666c6f7700000000000000000000000000000000000081525060200191505060405180910390fd5b81830184511015614d1e576040517f08c379a00000000000000000000000000000000000000000000000000000000081526004018080602001828103825260118152602001807f736c6963655f6f75744f66426f756e647300000000000000000000000000000081525060200191505060405180910390fd5b6060821560008114614d3f5760405191506000825260208201604052614d90565b6040519150601f8416801560200281840101858101878315602002848b0101015b81831015614d7d5780518352602083019250602081019050614d60565b50868552601f19601f8301166040525050505b50809150509392505050565b6000818291508160020b14614db057600080fd5b919050565b6000806000805b8451811015614e4a57848181518110614dd157fe5b6020026020010151602001516fffffffffffffffffffffffffffffffff16858281518110614dfb57fe5b60200260200101516000015160020b0283019250848181518110614e1b57fe5b6020026020010151602001516fffffffffffffffffffffffffffffffff16820191508080600101915050614dbc565b50808281614e5457fe5b059250600082128015614e7157506000818381614e6d57fe5b0714155b15614e80578280600190039350505b5050919050565b60006003601401601483510381614e9a57fe5b049050919050565b6000614ed87f0000000000000000000000000000000000000000000000000000000000000000614ed3868686615607565b6156ef565b90509392505050565b6000806000808473ffffffffffffffffffffffffffffffffffffffff16633850c7bd6040518163ffffffff1660e01b815260040160e06040518083038186803b158015614f2d57600080fd5b505afa158015614f41573d6000803e3d6000fd5b505050506040513d601f19601f82011682018060405250810190614f65919061666b565b9091929394955090915090505080935081945082955050505060018161ffff1611614fc5576040517f08c379a0000000000000000000000000000000000000000000000000000000008152600401614fbc906170e2565b60405180910390fd5b6000808673ffffffffffffffffffffffffffffffffffffffff1663252c09d7856040518263ffffffff1660e01b815260040161500191906171bb565b60806040518083038186803b15801561501957600080fd5b505afa15801561502d573d6000803e3d6000fd5b505050506040513d601f19601f82011682018060405250810190615051919061694a565b50509150915061505f613b15565b63ffffffff168263ffffffff161461507957849550615191565b60008361ffff1660018561ffff168761ffff1601038161509557fe5b06905060008060008a73ffffffffffffffffffffffffffffffffffffffff1663252c09d7856040518263ffffffff1660e01b81526004016150d691906171d6565b60806040518083038186803b1580156150ee57600080fd5b505afa158015615102573d6000803e3d6000fd5b505050506040513d601f19601f82011682018060405250810190615126919061694a565b935050925092508061516d576040517f08c379a0000000000000000000000000000000000000000000000000000000008152600401615164906170c2565b60405180910390fd5b600083870390508063ffffffff1683870360060b8161518857fe5b059a5050505050505b50505050915091565b60008060008363ffffffff16141561521a576040517f08c379a00000000000000000000000000000000000000000000000000000000081526004018080602001828103825260028152602001807f425000000000000000000000000000000000000000000000000000000000000081525060200191505060405180910390fd5b6000600267ffffffffffffffff8111801561523457600080fd5b506040519080825280602002602001820160405280156152635781602001602082028036833780820191505090505b509050838160008151811061527457fe5b602002602001019063ffffffff16908163ffffffff168152505060008160018151811061529d57fe5b602002602001019063ffffffff16908163ffffffff16815250506000808673ffffffffffffffffffffffffffffffffffffffff1663883bdbfd846040518263ffffffff1660e01b81526004018080602001828103825283818151815260200191508051906020019060200280838360005b8381101561532957808201518184015260208101905061530e565b505050509050019250505060006040518083038186803b15801561534c57600080fd5b505afa158015615360573d6000803e3d6000fd5b505050506040513d6000823e3d601f19601f82011682018060405250604081101561538a57600080fd5b81019080805160405193929190846401000000008211156153aa57600080fd5b838201915060208201858111156153c057600080fd5b82518660208202830111640100000000821117156153dd57600080fd5b8083526020830192505050908051906020019060200280838360005b838110156154145780820151818401526020810190506153f9565b505050509050016040526020018051604051939291908464010000000082111561543d57600080fd5b8382019150602082018581111561545357600080fd5b825186602082028301116401000000008211171561547057600080fd5b8083526020830192505050908051906020019060200280838360005b838110156154a757808201518184015260208101905061548c565b50505050905001604052505050915091506000826000815181106154c757fe5b6020026020010151836001815181106154dc57fe5b60200260200101510390506000826000815181106154f657fe5b60200260200101518360018151811061550b57fe5b60200260200101510390508763ffffffff168260060b8161552857fe5b05965060008260060b128015615554575060008863ffffffff168360060b8161554d57fe5b0760060b14155b15615563578680600190039750505b600073ffffffffffffffffffffffffffffffffffffffff80168963ffffffff1602905060208273ffffffffffffffffffffffffffffffffffffffff1677ffffffffffffffffffffffffffffffffffffffffffffffff16901b77ffffffffffffffffffffffffffffffffffffffffffffffff168177ffffffffffffffffffffffffffffffffffffffffffffffff16816155f757fe5b0496505050505050509250929050565b61560f615893565b8273ffffffffffffffffffffffffffffffffffffffff168473ffffffffffffffffffffffffffffffffffffffff16111561564e57828480945081955050505b60405180606001604052808573ffffffffffffffffffffffffffffffffffffffff1681526020018473ffffffffffffffffffffffffffffffffffffffff1681526020018362ffffff1681525090509392505050565b60006156af83836156ef565b90508073ffffffffffffffffffffffffffffffffffffffff163373ffffffffffffffffffffffffffffffffffffffff16146156e957600080fd5b92915050565b6000816020015173ffffffffffffffffffffffffffffffffffffffff16826000015173ffffffffffffffffffffffffffffffffffffffff161061573157600080fd5b82826000015183602001518460400151604051602001808473ffffffffffffffffffffffffffffffffffffffff1681526020018373ffffffffffffffffffffffffffffffffffffffff1681526020018262ffffff1681526020019350505050604051602081830303815290604052805190602001207fe34f199b19b2b4f47f68442619d555527d244f78a3297ea89325f843f87b8b5460001b60405160200180807fff000000000000000000000000000000000000000000000000000000000000008152506001018473ffffffffffffffffffffffffffffffffffffffff1660601b815260140183815260200182815260200193505050506040516020818303038152906040528051906020012060001c905092915050565b600082828401915081101561585e57600080fd5b92915050565b6040518060400160405280600060020b815260200160006fffffffffffffffffffffffffffffffff1681525090565b6040518060600160405280600073ffffffffffffffffffffffffffffffffffffffff168152602001600073ffffffffffffffffffffffffffffffffffffffff168152602001600062ffffff1681525090565b60006158f86158f3846172c5565b617294565b9050808382526020820190508260005b85811015615938578135850161591e8882615b9b565b845260208401935060208301925050600181019050615908565b5050509392505050565b6000615955615950846172f1565b617294565b9050808382526020820190508285602086028201111561597457600080fd5b60005b858110156159a4578161598a8882615e7a565b845260208401935060208301925050600181019050615977565b5050509392505050565b60006159c16159bc8461731d565b617294565b9050828152602081018484840111156159d957600080fd5b6159e484828561755d565b509392505050565b60006159ff6159fa8461734d565b617294565b905082815260208101848484011115615a1757600080fd5b615a2284828561756c565b509392505050565b600081359050615a3981617616565b92915050565b60008083601f840112615a5157600080fd5b8235905067ffffffffffffffff811115615a6a57600080fd5b602083019150836020820283011115615a8257600080fd5b9250929050565b60008083601f840112615a9b57600080fd5b8235905067ffffffffffffffff811115615ab457600080fd5b602083019150836020820283011115615acc57600080fd5b9250929050565b600082601f830112615ae457600080fd5b8135615af48482602086016158e5565b91505092915050565b600082601f830112615b0e57600080fd5b8135615b1e848260208601615942565b91505092915050565b600081519050615b368161762d565b92915050565b600081359050615b4b81617644565b92915050565b60008083601f840112615b6357600080fd5b8235905067ffffffffffffffff811115615b7c57600080fd5b602083019150836001820283011115615b9457600080fd5b9250929050565b600082601f830112615bac57600080fd5b8135615bbc8482602086016159ae565b91505092915050565b600081359050615bd48161765b565b92915050565b600081519050615be98161765b565b92915050565b600081359050615bfe81617672565b92915050565b600081519050615c1381617672565b92915050565b600081519050615c2881617689565b92915050565b600082601f830112615c3f57600080fd5b8151615c4f8482602086016159ec565b91505092915050565b600060808284031215615c6a57600080fd5b615c746080617294565b9050600082013567ffffffffffffffff811115615c9057600080fd5b615c9c84828501615b9b565b6000830152506020615cb084828501615a2a565b6020830152506040615cc484828501615ee3565b6040830152506060615cd884828501615ee3565b60608301525092915050565b600060e08284031215615cf657600080fd5b615d0060e0617294565b90506000615d1084828501615a2a565b6000830152506020615d2484828501615a2a565b6020830152506040615d3884828501615ece565b6040830152506060615d4c84828501615a2a565b6060830152506080615d6084828501615ee3565b60808301525060a0615d7484828501615ee3565b60a08301525060c0615d8884828501615e8f565b60c08301525092915050565b600060808284031215615da657600080fd5b81905092915050565b600060e08284031215615dc157600080fd5b81905092915050565b600060a08284031215615ddc57600080fd5b81905092915050565b60006101008284031215615df857600080fd5b81905092915050565b600060408284031215615e1357600080fd5b615e1d6040617294565b9050600082013567ffffffffffffffff811115615e3957600080fd5b615e4584828501615b9b565b6000830152506020615e5984828501615a2a565b60208301525092915050565b600081519050615e74816176a0565b92915050565b600081359050615e89816176b7565b92915050565b600081359050615e9e816176e5565b92915050565b600081519050615eb3816176e5565b92915050565b600081519050615ec8816176ce565b92915050565b600081359050615edd816176fc565b92915050565b600081359050615ef281617713565b92915050565b600081519050615f0781617713565b92915050565b600081359050615f1c8161772a565b92915050565b600081519050615f318161772a565b92915050565b600081359050615f4681617741565b92915050565b600081519050615f5b81617741565b92915050565b600060208284031215615f7357600080fd5b6000615f8184828501615a2a565b91505092915050565b60008060408385031215615f9d57600080fd5b6000615fab85828601615a2a565b9250506020615fbc85828601615ee3565b9150509250929050565b600080600060608486031215615fdb57600080fd5b6000615fe986828701615a2a565b9350506020615ffa86828701615ee3565b925050604061600b86828701615a2a565b9150509250925092565b600080600080600060a0868803121561602d57600080fd5b600061603b88828901615a2a565b955050602061604c88828901615ee3565b945050604061605d88828901615a2a565b935050606061606e88828901615ee3565b925050608061607f88828901615a2a565b9150509295509295909350565b600080600080608085870312156160a257600080fd5b60006160b087828801615a2a565b94505060206160c187828801615ee3565b93505060406160d287828801615ee3565b92505060606160e387828801615a2a565b91505092959194509250565b60008060008060008060c0878903121561610857600080fd5b600061611689828a01615a2a565b965050602061612789828a01615ee3565b955050604061613889828a01615ee3565b945050606061614989828a01615f37565b935050608061615a89828a01615b3c565b92505060a061616b89828a01615b3c565b9150509295509295509295565b6000806020838503121561618b57600080fd5b600083013567ffffffffffffffff8111156161a557600080fd5b6161b185828601615a89565b92509250509250929050565b600080600080608085870312156161d357600080fd5b600085013567ffffffffffffffff8111156161ed57600080fd5b6161f987828801615ad3565b945050602085013567ffffffffffffffff81111561621657600080fd5b61622287828801615afd565b935050604061623387828801615ece565b925050606061624487828801615f0d565b91505092959194509250565b60006020828403121561626257600080fd5b600061627084828501615b27565b91505092915050565b60008060006040848603121561628e57600080fd5b600061629c86828701615b3c565b935050602084013567ffffffffffffffff8111156162b957600080fd5b6162c586828701615a89565b92509250509250925092565b6000602082840312156162e357600080fd5b600082013567ffffffffffffffff8111156162fd57600080fd5b61630984828501615b9b565b91505092915050565b60008060006060848603121561632757600080fd5b600084013567ffffffffffffffff81111561634157600080fd5b61634d86828701615b9b565b935050602061635e86828701615ece565b925050604061636f86828701615f0d565b9150509250925092565b60006020828403121561638b57600080fd5b600061639984828501615bc5565b91505092915050565b600080604083850312156163b557600080fd5b60006163c385828601615c04565b92505060206163d485828601615c04565b9150509250929050565b600080600080606085870312156163f457600080fd5b600061640287828801615bef565b945050602061641387828801615bef565b935050604085013567ffffffffffffffff81111561643057600080fd5b61643c87828801615b51565b925092505092959194509250565b60006020828403121561645c57600080fd5b600082015167ffffffffffffffff81111561647657600080fd5b61648284828501615c2e565b91505092915050565b60006020828403121561649d57600080fd5b600082013567ffffffffffffffff8111156164b757600080fd5b6164c384828501615c58565b91505092915050565b600060e082840312156164de57600080fd5b60006164ec84828501615ce4565b91505092915050565b60006020828403121561650757600080fd5b600082013567ffffffffffffffff81111561652157600080fd5b61652d84828501615d94565b91505092915050565b600060e0828403121561654857600080fd5b600061655684828501615daf565b91505092915050565b600060a0828403121561657157600080fd5b600061657f84828501615dca565b91505092915050565b6000610100828403121561659b57600080fd5b60006165a984828501615de5565b91505092915050565b6000602082840312156165c457600080fd5b600082013567ffffffffffffffff8111156165de57600080fd5b6165ea84828501615e01565b91505092915050565b60008060006060848603121561660857600080fd5b600061661686828701615e65565b935050602061662786828701615e65565b925050604061663886828701615f22565b9150509250925092565b60006020828403121561665457600080fd5b600061666284828501615e8f565b91505092915050565b600080600080600080600060e0888a03121561668657600080fd5b60006166948a828b01615ea4565b97505060206166a58a828b01615bda565b96505060406166b68a828b01615eb9565b95505060606166c78a828b01615eb9565b94505060806166d88a828b01615eb9565b93505060a06166e98a828b01615f4c565b92505060c06166fa8a828b01615b27565b91505092959891949750929550565b60006020828403121561671b57600080fd5b600061672984828501615ece565b91505092915050565b60006020828403121561674457600080fd5b600061675284828501615ee3565b91505092915050565b60006020828403121561676d57600080fd5b600061677b84828501615ef8565b91505092915050565b6000806040838503121561679757600080fd5b60006167a585828601615ee3565b92505060206167b685828601615a2a565b9150509250929050565b600080600080608085870312156167d657600080fd5b60006167e487828801615ee3565b94505060206167f587828801615a2a565b935050604061680687828801615ee3565b925050606061681787828801615a2a565b91505092959194509250565b60008060006040848603121561683857600080fd5b600061684686828701615ee3565b935050602084013567ffffffffffffffff81111561686357600080fd5b61686f86828701615a89565b92509250509250925092565b60008060006060848603121561689057600080fd5b600061689e86828701615ee3565b93505060206168af86828701615ee3565b92505060406168c086828701615a2a565b9150509250925092565b6000806000806000608086880312156168e257600080fd5b60006168f088828901615ee3565b955050602061690188828901615ee3565b945050604086013567ffffffffffffffff81111561691e57600080fd5b61692a88828901615a3f565b9350935050606061693d88828901615a2a565b9150509295509295909350565b6000806000806080858703121561696057600080fd5b600061696e87828801615f22565b945050602061697f87828801615c19565b935050604061699087828801615ea4565b92505060606169a187828801615b27565b91505092959194509250565b60006169b98383616aae565b905092915050565b6169ca81617503565b82525050565b6169d98161740a565b82525050565b6169e88161740a565b82525050565b6169ff6169fa8261740a565b61759f565b82525050565b6000616a108261738d565b616a1a81856173bb565b935083602082028501616a2c8561737d565b8060005b85811015616a685784840389528151616a4985826169ad565b9450616a54836173ae565b925060208a01995050600181019050616a30565b50829750879550505050505092915050565b616a838161741c565b82525050565b6000616a9583856173ee565b9350616aa283858461755d565b82840190509392505050565b6000616ab982617398565b616ac381856173cc565b9350616ad381856020860161756c565b616adc816175d7565b840191505092915050565b6000616af282617398565b616afc81856173dd565b9350616b0c81856020860161756c565b616b15816175d7565b840191505092915050565b6000616b2b82617398565b616b3581856173ee565b9350616b4581856020860161756c565b80840191505092915050565b616b5a81617515565b82525050565b616b6981617445565b82525050565b616b7881617452565b82525050565b6000616b89826173a3565b616b9381856173f9565b9350616ba381856020860161756c565b616bac816175d7565b840191505092915050565b6000616bc46003836173f9565b91507f4f4e4900000000000000000000000000000000000000000000000000000000006000830152602082019050919050565b6000616c046003836173f9565b91507f4e454f00000000000000000000000000000000000000000000000000000000006000830152602082019050919050565b6000616c446012836173f9565b91507f546f6f206d7563682072657175657374656400000000000000000000000000006000830152602082019050919050565b6000616c846002836173f9565b91507f54440000000000000000000000000000000000000000000000000000000000006000830152602082019050919050565b6000616cc46013836173f9565b91507f546f6f206c6974746c65207265636569766564000000000000000000000000006000830152602082019050919050565b60c082016000820151616d0d6000850182616ed4565b506020820151616d206020850182616ed4565b506040820151616d336040850182616ed4565b506060820151616d466060850182616ed4565b506080820151616d596080850182616ed4565b5060a0820151616d6c60a0850182616ed4565b50505050565b61016082016000820151616d8960008501826169d0565b506020820151616d9c60208501826169d0565b506040820151616daf6040850182616eae565b506060820151616dc26060850182616b60565b506080820151616dd56080850182616b60565b5060a0820151616de860a0850182616ed4565b5060c0820151616dfb60c0850182616ed4565b5060e0820151616e0e60e0850182616ed4565b50610100820151616e23610100850182616ed4565b50610120820151616e386101208501826169d0565b50610140820151616e4d610140850182616ed4565b50505050565b60006040830160008301518482036000860152616e708282616aae565b9150506020830151616e8560208601826169d0565b508091505092915050565b616e99816174ad565b82525050565b616ea88161754b565b82525050565b616eb7816174cd565b82525050565b616ece616ec9826174cd565b6175c3565b82525050565b616edd816174dc565b82525050565b616eec816174dc565b82525050565b6000616efe82866169ee565b601482019150616f0e8285616ebd565b600382019150616f1e82846169ee565b601482019150819050949350505050565b6000616f3c828486616a89565b91508190509392505050565b6000616f548284616b20565b915081905092915050565b6000602082019050616f7460008301846169df565b92915050565b6000602082019050616f8f60008301846169c1565b92915050565b6000604082019050616faa60008301856169df565b616fb760208301846169df565b9392505050565b600060a082019050616fd360008301886169df565b616fe06020830187616a7a565b616fed6040830186616b6f565b616ffa6060830185616e90565b818103608083015261700c8184616ae7565b90509695505050505050565b600060408201905061702d60008301856169df565b61703a6020830184616ee3565b9392505050565b6000602082019050818103600083015261705b8184616a05565b905092915050565b6000602082019050818103600083015261707d8184616ae7565b905092915050565b600060208201905061709a6000830184616b51565b92915050565b600060208201905081810360008301526170ba8184616b7e565b905092915050565b600060208201905081810360008301526170db81616bb7565b9050919050565b600060208201905081810360008301526170fb81616bf7565b9050919050565b6000602082019050818103600083015261711b81616c37565b9050919050565b6000602082019050818103600083015261713b81616c77565b9050919050565b6000602082019050818103600083015261715b81616cb7565b9050919050565b600060c0820190506171776000830184616cf7565b92915050565b6000610160820190506171936000830184616d72565b92915050565b600060208201905081810360008301526171b38184616e53565b905092915050565b60006020820190506171d06000830184616e9f565b92915050565b60006020820190506171eb6000830184616ee3565b92915050565b60006080820190506172066000830187616ee3565b6172136020830186616ee3565b61722060408301856169df565b81810360608301526172328184616ae7565b905095945050505050565b6000808335600160200384360303811261725657600080fd5b80840192508235915067ffffffffffffffff82111561727457600080fd5b60208301925060018202360383131561728c57600080fd5b509250929050565b6000604051905081810181811067ffffffffffffffff821117156172bb576172ba6175d5565b5b8060405250919050565b600067ffffffffffffffff8211156172e0576172df6175d5565b5b602082029050602081019050919050565b600067ffffffffffffffff82111561730c5761730b6175d5565b5b602082029050602081019050919050565b600067ffffffffffffffff821115617338576173376175d5565b5b601f19601f8301169050602081019050919050565b600067ffffffffffffffff821115617368576173676175d5565b5b601f19601f8301169050602081019050919050565b6000819050602082019050919050565b600081519050919050565b600081519050919050565b600081519050919050565b6000602082019050919050565b600082825260208201905092915050565b600082825260208201905092915050565b600082825260208201905092915050565b600081905092915050565b600082825260208201905092915050565b6000617415826174ad565b9050919050565b60008115159050919050565b6000819050919050565b600081905061744082617602565b919050565b60008160020b9050919050565b6000819050919050565b60008160060b9050919050565b60006dffffffffffffffffffffffffffff82169050919050565b60006fffffffffffffffffffffffffffffffff82169050919050565b600061ffff82169050919050565b600073ffffffffffffffffffffffffffffffffffffffff82169050919050565b600062ffffff82169050919050565b6000819050919050565b600063ffffffff82169050919050565b600060ff82169050919050565b600061750e82617527565b9050919050565b600061752082617432565b9050919050565b600061753282617539565b9050919050565b6000617544826174ad565b9050919050565b60006175568261749f565b9050919050565b82818337600083830152505050565b60005b8381101561758a57808201518184015260208101905061756f565b83811115617599576000848401525b50505050565b60006175aa826175b1565b9050919050565b60006175bc826175f5565b9050919050565b60006175ce826175e8565b9050919050565bfe5b6000601f19601f8301169050919050565b60008160e81b9050919050565b60008160601b9050919050565b60058110617613576176126175d5565b5b50565b61761f8161740a565b811461762a57600080fd5b50565b6176368161741c565b811461764157600080fd5b50565b61764d81617428565b811461765857600080fd5b50565b61766481617445565b811461766f57600080fd5b50565b61767b81617452565b811461768657600080fd5b50565b6176928161745c565b811461769d57600080fd5b50565b6176a981617469565b81146176b457600080fd5b50565b6176c081617483565b81146176cb57600080fd5b50565b6176d78161749f565b81146176e257600080fd5b50565b6176ee816174ad565b81146176f957600080fd5b50565b617705816174cd565b811461771057600080fd5b50565b61771c816174dc565b811461772757600080fd5b50565b617733816174e6565b811461773e57600080fd5b50565b61774a816174f6565b811461775557600080fd5b5056fea2646970667358221220710dbf275d8550247e19fe0479e9391159a83d9880334b7490bacd6608702d1e64736f6c63430007060033",
  "linkReferences": {},
  "deployedLinkReferences": {}
}